:1000000075817075D00079637A637B007E637D6350
:100010007F007C0B75A0FFE975F00A84F57085F010
:1000200071EA75F00A84F57285F073ED75F00A8453
:10003000F56085F061EE75F00A84F56285F063E5A0
:10004000738563F0A475F00A8485F020F55FE5728E
:100050008563F0A4255F75F00A8485F021F55FE5DE
:10006000718563F0A4255F75F00A8485F022F55F41
:10007000E5708563F0A4255F75F00A8485F023F5AB
:1000800024E5738562F0A475F00A8485F025F55F98
:10009000E5728562F0A4255F75F00A8485F026F587
:1000A0005FE5718562F0A4255F75F00A8485F0270D
:1000B000F55FE5708562F0A4255F75F00A8485F030
:1000C00028F529E5738561F0A475F00A8485F02A86
:1000D000F55FE5728561F0A4255F75F00A8485F00F
:1000E0002BF55FE5718561F0A4255F75F00A8485C5
:1000F000F02CF55FE5708561F0A4255F75F00A844A
:1001000085F02DF52EE5738560F0A475F00A8485E1
:10011000F030F55FE5728560F0A4255F75F00A8424
:1001200085F031F55FE5718560F0A4255F75F00A13
:100130008485F032F55FE5708560F0A4255F75F089
:100140000A8485F033F534E5202430F560E5212577
:100150002575F00A84F53FE5F02430F561E53F258B
:10016000222526252A75F00A84F53FE5F02430F58E
:1001700062E53F25232527252B253075F00A84F5D8
:100180003FE5F02430F563E53F25242528252C257F
:100190003175F00A84F53FE5F02430F564E53F253C
:1001A00029252D253275F00A84F53FE5F02430F538
:1001B00065E53F252E253375F00A84F53FE5F024EB
:1001C00030F566E53F253475F00A84F568E5F024DE
:0501D00030F56780FE20
:00000001FF
